{
  "_format": "hh-sol-artifact-1",
  "contractName": "AccessControl",
  "sourceName": "contracts/accessControl.sol",
  "abi": [
    {
      "inputs": [],
      "stateMutability": "nonpayable",
      "type": "constructor"
    },
    {
      "anonymous": false,
      "inputs": [
        {
          "indexed": true,
          "internalType": "bytes32",
          "name": "role",
          "type": "bytes32"
        },
        {
          "indexed": true,
          "internalType": "address",
          "name": "account",
          "type": "address"
        }
      ],
      "name": "GrantRole",
      "type": "event"
    },
    {
      "anonymous": false,
      "inputs": [
        {
          "indexed": true,
          "internalType": "bytes32",
          "name": "role",
          "type": "bytes32"
        },
        {
          "indexed": true,
          "internalType": "address",
          "name": "account",
          "type": "address"
        }
      ],
      "name": "RevokeRole",
      "type": "event"
    },
    {
      "inputs": [
        {
          "internalType": "bytes32",
          "name": "_role",
          "type": "bytes32"
        },
        {
          "internalType": "address",
          "name": "_account",
          "type": "address"
        }
      ],
      "name": "grantRole",
      "outputs": [],
      "stateMutability": "nonpayable",
      "type": "function"
    },
    {
      "inputs": [
        {
          "internalType": "bytes32",
          "name": "_role",
          "type": "bytes32"
        },
        {
          "internalType": "address",
          "name": "_account",
          "type": "address"
        }
      ],
      "name": "revokeRole",
      "outputs": [],
      "stateMutability": "nonpayable",
      "type": "function"
    },
    {
      "inputs": [
        {
          "internalType": "bytes32",
          "name": "",
          "type": "bytes32"
        },
        {
          "internalType": "address",
          "name": "",
          "type": "address"
        }
      ],
      "name": "roles",
      "outputs": [
        {
          "internalType": "bool",
          "name": "",
          "type": "bool"
        }
      ],
      "stateMutability": "view",
      "type": "function"
    }
  ],
  "bytecode": "0x608060405234801561001057600080fd5b5061004560405160200161002390610151565b604051602081830303815290604052805190602001203361004a60201b60201c565b610166565b600160008084815260200190815260200160002060008373ffffffffffffffffffffffffffffffffffffffff1673ffffffffffffffffffffffffffffffffffffffff16815260200190815260200160002060006101000a81548160ff0219169083151502179055508073ffffffffffffffffffffffffffffffffffffffff16827f5a06360d65acf95e98445dc834f205063424c636e65418d928cdfabc33a9539960405160405180910390a35050565b600081905092915050565b7f41444d494e000000000000000000000000000000000000000000000000000000600082015250565b600061013b6005836100fa565b915061014682610105565b600582019050919050565b600061015c8261012e565b9150819050919050565b6105fd806101756000396000f3fe608060405234801561001057600080fd5b50600436106100415760003560e01c80632f2ff15d14610046578063d547741f14610062578063f8fc08b91461007e575b600080fd5b610060600480360381019061005b9190610468565b6100ae565b005b61007c60048036038101906100779190610468565b61017e565b005b61009860048036038101906100939190610468565b6102f0565b6040516100a591906104c3565b60405180910390f35b6040516020016100bd90610535565b6040516020818303038152906040528051906020012060008082815260200190815260200160002060003373ffffffffffffffffffffffffffffffffffffffff1673ffffffffffffffffffffffffffffffffffffffff16815260200190815260200160002060009054906101000a900460ff1661016f576040517f08c379a0000000000000000000000000000000000000000000000000000000008152600401610166906105a7565b60405180910390fd5b610179838361031f565b505050565b60405160200161018d90610535565b6040516020818303038152906040528051906020012060008082815260200190815260200160002060003373ffffffffffffffffffffffffffffffffffffffff1673ffffffffffffffffffffffffffffffffffffffff16815260200190815260200160002060009054906101000a900460ff1661023f576040517f08c379a0000000000000000000000000000000000000000000000000000000008152600401610236906105a7565b60405180910390fd5b600080600085815260200190815260200160002060008473ffffffffffffffffffffffffffffffffffffffff1673ffffffffffffffffffffffffffffffffffffffff16815260200190815260200160002060006101000a81548160ff0219169083151502179055508173ffffffffffffffffffffffffffffffffffffffff16837f76e6093c136cd7faa5a6d92b2b633f3b4595abd4a529b7a13917398355fea69460405160405180910390a3505050565b60006020528160005260406000206020528060005260406000206000915091509054906101000a900460ff1681565b600160008084815260200190815260200160002060008373ffffffffffffffffffffffffffffffffffffffff1673ffffffffffffffffffffffffffffffffffffffff16815260200190815260200160002060006101000a81548160ff0219169083151502179055508073ffffffffffffffffffffffffffffffffffffffff16827f5a06360d65acf95e98445dc834f205063424c636e65418d928cdfabc33a9539960405160405180910390a35050565b600080fd5b6000819050919050565b6103e7816103d4565b81146103f257600080fd5b50565b600081359050610404816103de565b92915050565b600073ffffffffffffffffffffffffffffffffffffffff82169050919050565b60006104358261040a565b9050919050565b6104458161042a565b811461045057600080fd5b50565b6000813590506104628161043c565b92915050565b6000806040838503121561047f5761047e6103cf565b5b600061048d858286016103f5565b925050602061049e85828601610453565b9150509250929050565b60008115159050919050565b6104bd816104a8565b82525050565b60006020820190506104d860008301846104b4565b92915050565b600081905092915050565b7f41444d494e000000000000000000000000000000000000000000000000000000600082015250565b600061051f6005836104de565b915061052a826104e9565b600582019050919050565b600061054082610512565b9150819050919050565b600082825260208201905092915050565b7f6e6f7420617574686f72697a6564000000000000000000000000000000000000600082015250565b6000610591600e8361054a565b915061059c8261055b565b602082019050919050565b600060208201905081810360008301526105c081610584565b905091905056fea2646970667358221220f36ad9e9e6e90a4caf0f91dc5c8e22958cb8b2ac7de53798783ad7561bfa60c764736f6c63430008080033",
  "linkReferences": {},
  "deployedLinkReferences": {}
}